{
  "address": "0x9E896718720702EcFCbf0f405B34Cdc667DF465C",
  "abi": [
    {
      "inputs": [
        {
          "internalType": "address",
          "name": "_token",
          "type": "address"
        },
        {
          "internalType": "address",
          "name": "_ens",
          "type": "address"
        },
        {
          "internalType": "bytes32",
          "name": "_node",
          "type": "bytes32"
        },
        {
          "internalType": "address",
          "name": "_resolver",
          "type": "address"
        }
      ],
      "stateMutability": "nonpayable",
      "type": "constructor"
    },
    {
      "anonymous": false,
      "inputs": [
        {
          "indexed": true,
          "internalType": "bytes32",
          "name": "label",
          "type": "bytes32"
        },
        {
          "indexed": true,
          "internalType": "address",
          "name": "to",
          "type": "address"
        },
        {
          "indexed": true,
          "internalType": "bool",
          "name": "paid",
          "type": "bool"
        }
      ],
      "name": "Register",
      "type": "event"
    },
    {
      "anonymous": false,
      "inputs": [
        {
          "indexed": true,
          "internalType": "bytes32",
          "name": "label",
          "type": "bytes32"
        },
        {
          "indexed": true,
          "internalType": "address",
          "name": "to",
          "type": "address"
        }
      ],
      "name": "Withdraw",
      "type": "event"
    },
    {
      "inputs": [
        {
          "internalType": "address",
          "name": "",
          "type": "address"
        },
        {
          "internalType": "bytes32",
          "name": "",
          "type": "bytes32"
        }
      ],
      "name": "deposits",
      "outputs": [
        {
          "internalType": "uint64",
          "name": "deadline",
          "type": "uint64"
        },
        {
          "internalType": "bool",
          "name": "withdrawn",
          "type": "bool"
        }
      ],
      "stateMutability": "view",
      "type": "function"
    },
    {
      "inputs": [],
      "name": "ens",
      "outputs": [
        {
          "internalType": "address",
          "name": "",
          "type": "address"
        }
      ],
      "stateMutability": "view",
      "type": "function"
    },
    {
      "inputs": [],
      "name": "node",
      "outputs": [
        {
          "internalType": "bytes32",
          "name": "",
          "type": "bytes32"
        }
      ],
      "stateMutability": "view",
      "type": "function"
    },
    {
      "inputs": [],
      "name": "owner",
      "outputs": [
        {
          "internalType": "address",
          "name": "",
          "type": "address"
        }
      ],
      "stateMutability": "view",
      "type": "function"
    },
    {
      "inputs": [
        {
          "internalType": "string",
          "name": "domain",
          "type": "string"
        },
        {
          "internalType": "address",
          "name": "to",
          "type": "address"
        }
      ],
      "name": "register",
      "outputs": [],
      "stateMutability": "nonpayable",
      "type": "function"
    },
    {
      "inputs": [],
      "name": "resolver",
      "outputs": [
        {
          "internalType": "address",
          "name": "",
          "type": "address"
        }
      ],
      "stateMutability": "view",
      "type": "function"
    },
    {
      "inputs": [],
      "name": "token",
      "outputs": [
        {
          "internalType": "address",
          "name": "",
          "type": "address"
        }
      ],
      "stateMutability": "view",
      "type": "function"
    },
    {
      "inputs": [
        {
          "internalType": "bytes32",
          "name": "label",
          "type": "bytes32"
        },
        {
          "internalType": "address",
          "name": "to",
          "type": "address"
        }
      ],
      "name": "withdraw",
      "outputs": [],
      "stateMutability": "nonpayable",
      "type": "function"
    }
  ],
  "transactionHash": "0xd74eb07aac192c93361138e01ae0af7121dd8a1f92309ea88fcc163b6437fbef",
  "args": [
    "0xdE0C1dC7f2b67705Cca50039418715F9C7F8D53B",
    "0x00000000000C2E074eC69A0dFb2997BA6C7d2e1e",
    "0xf88903d82aebfe9a5fa03a1a6eb4475330ed9991c9b6ffea0f6d0154a210efbe",
    "0x4976fb03c32e5b8cfe2b6ccb31c09ba78ebaba41"
  ],
  "solcInputHash": "4791d86bc2d57268e8b0b14728f94a78",
  "bytecode": "0x61012060405234801561001157600080fd5b50604051610ee1380380610ee183398101604081905261003091610071565b336080526001600160a01b0393841660a05291831660c05260e05216610100526100be565b80516001600160a01b038116811461006c57600080fd5b919050565b6000806000806080858703121561008757600080fd5b61009085610055565b935061009e60208601610055565b9250604085015191506100b360608601610055565b905092959194509250565b60805160a05160c05160e05161010051610d9a6101476000396000818160920152818161057e015261062c0152600081816101aa0152818161040e01528181610543015261069701526000818161015c01528181610481015281816105ad01526106d40152600081816101df0152818161035d01526107dc015260006101830152610d9a6000f3fe608060405234801561001057600080fd5b50600436106100885760003560e01c80633f15457f1161005b5780633f15457f146101575780638da5cb5b1461017e578063d70754ec146101a5578063fc0c546a146101da57600080fd5b806304f3bcec1461008d5780631b258d50146100d15780631e59c529146100e65780632260a9c2146100f9575b600080fd5b6100b47f000000000000000000000000000000000000000000000000000000000000000081565b6040516001600160a01b0390911681526020015b60405180910390f35b6100e46100df366004610b37565b610201565b005b6100e46100f4366004610b7d565b610393565b610137610107366004610c3f565b600060208181529281526040808220909352908152205467ffffffffffffffff811690600160401b900460ff1682565b6040805167ffffffffffffffff90931683529015156020830152016100c8565b6100b47f000000000000000000000000000000000000000000000000000000000000000081565b6100b47f000000000000000000000000000000000000000000000000000000000000000081565b6101cc7f000000000000000000000000000000000000000000000000000000000000000081565b6040519081526020016100c8565b6100b47f000000000000000000000000000000000000000000000000000000000000000081565b336000908152602081815260408083208584529091529020805467ffffffffffffffff811690600160401b900460ff16816102785760405162461bcd60e51b8152602060048201526012602482015271131155960e881393d397d1561254d511539560721b60448201526064015b60405180910390fd5b428267ffffffffffffffff1611156102c45760405162461bcd60e51b815260206004820152600f60248201526e4c4556583a20544f4f5f4541524c5960881b604482015260640161026f565b80156103045760405162461bcd60e51b815260206004820152600f60248201526e2622ab2c1d102ba4aa24222920aba760891b604482015260640161026f565b825468ff00000000000000001916600160401b1783556040516001600160a01b0385169086907f0448f4c3f7e202963aee589c062ccd162bcad2d1e20f233e7092cf77dacc61df90600090a361038c6001600160a01b037f00000000000000000000000000000000000000000000000000000000000000001685670de0b6b3a7640000610814565b5050505050565b815160038110156103df5760405162461bcd60e51b8152602060048201526016602482015275131155960e881113d350525397d513d3d7d4d213d49560521b604482015260640161026f565b6000836040516020016103f29190610c97565b60405160208183030381529060405280519060200120905060007f000000000000000000000000000000000000000000000000000000000000000082604051602001610448929190918252602082015260400190565b60408051808303601f190181529082905280516020909101206302571be360e01b82526004820181905291506000906001600160a01b037f000000000000000000000000000000000000000000000000000000000000000016906302571be390602401602060405180830381865afa1580156104c8573d6000803e3d6000fd5b505050506040513d601f19601f820116820180604052508101906104ec9190610cb3565b6001600160a01b0316146105345760405162461bcd60e51b815260206004820152600f60248201526e4c4556583a204455504c494341544560881b604482015260640161026f565b6040516305ef2c7f60e41b81527f00000000000000000000000000000000000000000000000000000000000000006004820152602481018390523060448201526001600160a01b037f000000000000000000000000000000000000000000000000000000000000000081166064830152600060848301527f00000000000000000000000000000000000000000000000000000000000000001690635ef2c7f09060a401600060405180830381600087803b1580156105f157600080fd5b505af1158015610605573d6000803e3d6000fd5b505060405162d5fa2b60e81b8152600481018490526001600160a01b0387811660248301527f000000000000000000000000000000000000000000000000000000000000000016925063d5fa2b009150604401600060405180830381600087803b15801561067257600080fd5b505af1158015610686573d6000803e3d6000fd5b50506040516306ab592360e01b81527f00000000000000000000000000000000000000000000000000000000000000006004820152602481018590526001600160a01b0387811660448301527f00000000000000000000000000000000000000000000000000000000000000001692506306ab592391506064016020604051808303816000875af115801561071f573d6000803e3d6000fd5b505050506040513d601f19601f820116820180604052508101906107439190610cd0565b5060405160078411159081906001600160a01b0387169085907fec70afbd65b171786ffda4b0655d145a1d6e0bc9407e225c9864fbd1b4e9104290600090a4801561080c576107954262127500610ce9565b336000818152602081815260408083208884529091529020805467ffffffffffffffff191667ffffffffffffffff939093169290921790915561080c906001600160a01b037f0000000000000000000000000000000000000000000000000000000000000000169030670de0b6b3a764000061087c565b505050505050565b6040516001600160a01b03831660248201526044810182905261087790849063a9059cbb60e01b906064015b60408051601f198184030181529190526020810180516001600160e01b03166001600160e01b0319909316929092179091526108ba565b505050565b6040516001600160a01b03808516602483015283166044820152606481018290526108b49085906323b872dd60e01b90608401610840565b50505050565b600061090f826040518060400160405280602081526020017f5361666545524332303a206c6f772d6c6576656c2063616c6c206661696c6564815250856001600160a01b031661098c9092919063ffffffff16565b805190915015610877578080602001905181019061092d9190610d0f565b6108775760405162461bcd60e51b815260206004820152602a60248201527f5361666545524332303a204552433230206f7065726174696f6e20646964206e6044820152691bdd081cdd58d8d9595960b21b606482015260840161026f565b606061099b84846000856109a5565b90505b9392505050565b606082471015610a065760405162461bcd60e51b815260206004820152602660248201527f416464726573733a20696e73756666696369656e742062616c616e636520666f6044820152651c8818d85b1b60d21b606482015260840161026f565b6001600160a01b0385163b610a5d5760405162461bcd60e51b815260206004820152601d60248201527f416464726573733a2063616c6c20746f206e6f6e2d636f6e7472616374000000604482015260640161026f565b600080866001600160a01b03168587604051610a799190610c97565b60006040518083038185875af1925050503d8060008114610ab6576040519150601f19603f3d011682016040523d82523d6000602084013e610abb565b606091505b5091509150610acb828286610ad6565b979650505050505050565b60608315610ae557508161099e565b825115610af55782518084602001fd5b8160405162461bcd60e51b815260040161026f9190610d31565b6001600160a01b0381168114610b2457600080fd5b50565b8035610b3281610b0f565b919050565b60008060408385031215610b4a57600080fd5b823591506020830135610b5c81610b0f565b809150509250929050565b634e487b7160e01b600052604160045260246000fd5b60008060408385031215610b9057600080fd5b823567ffffffffffffffff80821115610ba857600080fd5b818501915085601f830112610bbc57600080fd5b813581811115610bce57610bce610b67565b604051601f8201601f19908116603f01168101908382118183101715610bf657610bf6610b67565b81604052828152886020848701011115610c0f57600080fd5b826020860160208301376000602084830101528096505050505050610c3660208401610b27565b90509250929050565b60008060408385031215610c5257600080fd5b8235610c5d81610b0f565b946020939093013593505050565b60005b83811015610c86578181015183820152602001610c6e565b838111156108b45750506000910152565b60008251610ca9818460208701610c6b565b9190910192915050565b600060208284031215610cc557600080fd5b815161099e81610b0f565b600060208284031215610ce257600080fd5b5051919050565b60008219821115610d0a57634e487b7160e01b600052601160045260246000fd5b500190565b600060208284031215610d2157600080fd5b8151801515811461099e57600080fd5b6020815260008251806020840152610d50816040850160208701610c6b565b601f01601f1916919091016040019291505056fea2646970667358221220b0f6a18e4df9134b8ad805df13b4ed940f3b950b6fba1383fdf03e207f7b7d4c64736f6c634300080d0033",
  "devdoc": {
    "kind": "dev",
    "methods": {},
    "version": 1
  },
  "userdoc": {
    "kind": "user",
    "methods": {},
    "version": 1
  },
  "storageLayout": {
    "storage": [
      {
        "astId": 661,
        "contract": "contracts/SubdomainsRegistry.sol:SubdomainsRegistry",
        "label": "deposits",
        "offset": 0,
        "slot": "0",
        "type": "t_mapping(t_address,t_mapping(t_bytes32,t_struct(Deposit)666_storage))"
      }
    ],
    "types": {
      "t_address": {
        "encoding": "inplace",
        "label": "address",
        "numberOfBytes": "20"
      },
      "t_bool": {
        "encoding": "inplace",
        "label": "bool",
        "numberOfBytes": "1"
      },
      "t_bytes32": {
        "encoding": "inplace",
        "label": "bytes32",
        "numberOfBytes": "32"
      },
      "t_mapping(t_address,t_mapping(t_bytes32,t_struct(Deposit)666_storage))": {
        "encoding": "mapping",
        "key": "t_address",
        "label": "mapping(address => mapping(bytes32 => struct SubdomainsRegistry.Deposit))",
        "numberOfBytes": "32",
        "value": "t_mapping(t_bytes32,t_struct(Deposit)666_storage)"
      },
      "t_mapping(t_bytes32,t_struct(Deposit)666_storage)": {
        "encoding": "mapping",
        "key": "t_bytes32",
        "label": "mapping(bytes32 => struct SubdomainsRegistry.Deposit)",
        "numberOfBytes": "32",
        "value": "t_struct(Deposit)666_storage"
      },
      "t_struct(Deposit)666_storage": {
        "encoding": "inplace",
        "label": "struct SubdomainsRegistry.Deposit",
        "members": [
          {
            "astId": 663,
            "contract": "contracts/SubdomainsRegistry.sol:SubdomainsRegistry",
            "label": "deadline",
            "offset": 0,
            "slot": "0",
            "type": "t_uint64"
          },
          {
            "astId": 665,
            "contract": "contracts/SubdomainsRegistry.sol:SubdomainsRegistry",
            "label": "withdrawn",
            "offset": 8,
            "slot": "0",
            "type": "t_bool"
          }
        ],
        "numberOfBytes": "32"
      },
      "t_uint64": {
        "encoding": "inplace",
        "label": "uint64",
        "numberOfBytes": "8"
      }
    }
  }
}