{
  "address": "0xE36dc9Bb91B9d4335aCd430780C4c19BFD83bB24",
  "abi": [
    {
      "inputs": [
        {
          "internalType": "address",
          "name": "_token",
          "type": "address"
        },
        {
          "internalType": "address",
          "name": "_ens",
          "type": "address"
        },
        {
          "internalType": "bytes32",
          "name": "_node",
          "type": "bytes32"
        },
        {
          "internalType": "address",
          "name": "_resolver",
          "type": "address"
        }
      ],
      "stateMutability": "nonpayable",
      "type": "constructor"
    },
    {
      "anonymous": false,
      "inputs": [
        {
          "indexed": true,
          "internalType": "bytes32",
          "name": "label",
          "type": "bytes32"
        },
        {
          "indexed": true,
          "internalType": "address",
          "name": "to",
          "type": "address"
        },
        {
          "indexed": true,
          "internalType": "bool",
          "name": "paid",
          "type": "bool"
        }
      ],
      "name": "Register",
      "type": "event"
    },
    {
      "anonymous": false,
      "inputs": [
        {
          "indexed": true,
          "internalType": "address",
          "name": "to",
          "type": "address"
        }
      ],
      "name": "Withdraw",
      "type": "event"
    },
    {
      "inputs": [
        {
          "internalType": "address",
          "name": "",
          "type": "address"
        }
      ],
      "name": "deposits",
      "outputs": [
        {
          "internalType": "uint64",
          "name": "deadline",
          "type": "uint64"
        },
        {
          "internalType": "bool",
          "name": "paid",
          "type": "bool"
        },
        {
          "internalType": "bool",
          "name": "withdrawn",
          "type": "bool"
        }
      ],
      "stateMutability": "view",
      "type": "function"
    },
    {
      "inputs": [],
      "name": "ens",
      "outputs": [
        {
          "internalType": "address",
          "name": "",
          "type": "address"
        }
      ],
      "stateMutability": "view",
      "type": "function"
    },
    {
      "inputs": [],
      "name": "node",
      "outputs": [
        {
          "internalType": "bytes32",
          "name": "",
          "type": "bytes32"
        }
      ],
      "stateMutability": "view",
      "type": "function"
    },
    {
      "inputs": [],
      "name": "owner",
      "outputs": [
        {
          "internalType": "address",
          "name": "",
          "type": "address"
        }
      ],
      "stateMutability": "view",
      "type": "function"
    },
    {
      "inputs": [
        {
          "internalType": "string",
          "name": "domain",
          "type": "string"
        },
        {
          "internalType": "address",
          "name": "to",
          "type": "address"
        }
      ],
      "name": "register",
      "outputs": [],
      "stateMutability": "nonpayable",
      "type": "function"
    },
    {
      "inputs": [],
      "name": "resolver",
      "outputs": [
        {
          "internalType": "address",
          "name": "",
          "type": "address"
        }
      ],
      "stateMutability": "view",
      "type": "function"
    },
    {
      "inputs": [],
      "name": "token",
      "outputs": [
        {
          "internalType": "address",
          "name": "",
          "type": "address"
        }
      ],
      "stateMutability": "view",
      "type": "function"
    },
    {
      "inputs": [
        {
          "internalType": "address",
          "name": "to",
          "type": "address"
        }
      ],
      "name": "withdraw",
      "outputs": [],
      "stateMutability": "nonpayable",
      "type": "function"
    }
  ],
  "transactionHash": "0xd626ac6686d76441e2356af7735c2d9d0ca4d5b3b0dd40ea3d41cf2edbff62f5",
  "args": [
    "0xdE0C1dC7f2b67705Cca50039418715F9C7F8D53B",
    "0x00000000000C2E074eC69A0dFb2997BA6C7d2e1e",
    "0xf88903d82aebfe9a5fa03a1a6eb4475330ed9991c9b6ffea0f6d0154a210efbe",
    "0x4976fb03c32e5b8cfe2b6ccb31c09ba78ebaba41"
  ],
  "solcInputHash": "88a1396653fd4dbe060a3f949d7ceeac",
  "bytecode": "0x61012060405234801561001157600080fd5b50604051610ef3380380610ef383398101604081905261003091610071565b336080526001600160a01b0393841660a05291831660c05260e05216610100526100be565b80516001600160a01b038116811461006c57600080fd5b919050565b6000806000806080858703121561008757600080fd5b61009085610055565b935061009e60208601610055565b9250604085015191506100b360608601610055565b905092959194509250565b60805160a05160c05160e05161010051610dad610146600039600081816092015281816103fb01526104a901526000818161014c0152818161028b015281816103c0015261051401526000818160eb015281816102fe0152818161042a0152610551015260008181610181015281816106560152610830015260006101250152610dad6000f3fe608060405234801561001057600080fd5b50600436106100885760003560e01c80638da5cb5b1161005b5780638da5cb5b14610120578063d70754ec14610147578063fc0c546a1461017c578063fc7e286d146101a357600080fd5b806304f3bcec1461008d5780631e59c529146100d15780633f15457f146100e657806351cff8d91461010d575b600080fd5b6100b47f000000000000000000000000000000000000000000000000000000000000000081565b6040516001600160a01b0390911681526020015b60405180910390f35b6100e46100df366004610b9f565b61020b565b005b6100b47f000000000000000000000000000000000000000000000000000000000000000081565b6100e461011b366004610c61565b61068e565b6100b47f000000000000000000000000000000000000000000000000000000000000000081565b61016e7f000000000000000000000000000000000000000000000000000000000000000081565b6040519081526020016100c8565b6100b47f000000000000000000000000000000000000000000000000000000000000000081565b6101e36101b1366004610c61565b60006020819052908152604090205467ffffffffffffffff81169060ff600160401b8204811691600160481b90041683565b6040805167ffffffffffffffff909416845291151560208401521515908201526060016100c8565b8151600381101561025c5760405162461bcd60e51b8152602060048201526016602482015275131155960e881113d350525397d513d3d7d4d213d49560521b60448201526064015b60405180910390fd5b60008360405160200161026f9190610caa565b60405160208183030381529060405280519060200120905060007f0000000000000000000000000000000000000000000000000000000000000000826040516020016102c5929190918252602082015260400190565b60408051808303601f190181529082905280516020909101206302571be360e01b82526004820181905291506000906001600160a01b037f000000000000000000000000000000000000000000000000000000000000000016906302571be390602401602060405180830381865afa158015610345573d6000803e3d6000fd5b505050506040513d601f19601f820116820180604052508101906103699190610cc6565b6001600160a01b0316146103b15760405162461bcd60e51b815260206004820152600f60248201526e4c4556583a204455504c494341544560881b6044820152606401610253565b6040516305ef2c7f60e41b81527f00000000000000000000000000000000000000000000000000000000000000006004820152602481018390523060448201526001600160a01b037f000000000000000000000000000000000000000000000000000000000000000081166064830152600060848301527f00000000000000000000000000000000000000000000000000000000000000001690635ef2c7f09060a401600060405180830381600087803b15801561046e57600080fd5b505af1158015610482573d6000803e3d6000fd5b505060405162d5fa2b60e81b8152600481018490526001600160a01b0387811660248301527f000000000000000000000000000000000000000000000000000000000000000016925063d5fa2b009150604401600060405180830381600087803b1580156104ef57600080fd5b505af1158015610503573d6000803e3d6000fd5b50506040516306ab592360e01b81527f00000000000000000000000000000000000000000000000000000000000000006004820152602481018590526001600160a01b0387811660448301527f00000000000000000000000000000000000000000000000000000000000000001692506306ab592391506064016020604051808303816000875af115801561059c573d6000803e3d6000fd5b505050506040513d601f19601f820116820180604052508101906105c09190610ce3565b5060078311156105d34262127500610cfc565b336000908152602081905260408082208054851515600160401b810268ffffffffffffffffff1990921667ffffffffffffffff9690961695909517179055516001600160a01b0388169186917fec70afbd65b171786ffda4b0655d145a1d6e0bc9407e225c9864fbd1b4e910429190a48015610686576106866001600160a01b037f0000000000000000000000000000000000000000000000000000000000000000163330670de0b6b3a7640000610866565b505050505050565b336000908152602081905260409020805467ffffffffffffffff81169060ff600160401b8204811691600160481b900416816106fd5760405162461bcd60e51b815260206004820152600e60248201526d131155960e881393d397d410525160921b6044820152606401610253565b60008367ffffffffffffffff161161074c5760405162461bcd60e51b8152602060048201526012602482015271131155960e881393d397d1561254d511539560721b6044820152606401610253565b428367ffffffffffffffff1611156107985760405162461bcd60e51b815260206004820152600f60248201526e4c4556583a20544f4f5f4541524c5960881b6044820152606401610253565b80156107d85760405162461bcd60e51b815260206004820152600f60248201526e2622ab2c1d102ba4aa24222920aba760891b6044820152606401610253565b835469ff0000000000000000001916600160481b1784556040516001600160a01b038616907ff67611512e0a2d90c96fd3f08dca4971bc45fba9dc679eabe839a32abbe58a8e90600090a261085f6001600160a01b037f00000000000000000000000000000000000000000000000000000000000000001686670de0b6b3a76400006108d7565b5050505050565b6040516001600160a01b03808516602483015283166044820152606481018290526108d19085906323b872dd60e01b906084015b60408051601f198184030181529190526020810180516001600160e01b03166001600160e01b03199093169290921790915261090c565b50505050565b6040516001600160a01b03831660248201526044810182905261090790849063a9059cbb60e01b9060640161089a565b505050565b6000610961826040518060400160405280602081526020017f5361666545524332303a206c6f772d6c6576656c2063616c6c206661696c6564815250856001600160a01b03166109de9092919063ffffffff16565b805190915015610907578080602001905181019061097f9190610d22565b6109075760405162461bcd60e51b815260206004820152602a60248201527f5361666545524332303a204552433230206f7065726174696f6e20646964206e6044820152691bdd081cdd58d8d9595960b21b6064820152608401610253565b60606109ed84846000856109f7565b90505b9392505050565b606082471015610a585760405162461bcd60e51b815260206004820152602660248201527f416464726573733a20696e73756666696369656e742062616c616e636520666f6044820152651c8818d85b1b60d21b6064820152608401610253565b6001600160a01b0385163b610aaf5760405162461bcd60e51b815260206004820152601d60248201527f416464726573733a2063616c6c20746f206e6f6e2d636f6e74726163740000006044820152606401610253565b600080866001600160a01b03168587604051610acb9190610caa565b60006040518083038185875af1925050503d8060008114610b08576040519150601f19603f3d011682016040523d82523d6000602084013e610b0d565b606091505b5091509150610b1d828286610b28565b979650505050505050565b60608315610b375750816109f0565b825115610b475782518084602001fd5b8160405162461bcd60e51b81526004016102539190610d44565b634e487b7160e01b600052604160045260246000fd5b6001600160a01b0381168114610b8c57600080fd5b50565b8035610b9a81610b77565b919050565b60008060408385031215610bb257600080fd5b823567ffffffffffffffff80821115610bca57600080fd5b818501915085601f830112610bde57600080fd5b813581811115610bf057610bf0610b61565b604051601f8201601f19908116603f01168101908382118183101715610c1857610c18610b61565b81604052828152886020848701011115610c3157600080fd5b826020860160208301376000602084830101528096505050505050610c5860208401610b8f565b90509250929050565b600060208284031215610c7357600080fd5b81356109f081610b77565b60005b83811015610c99578181015183820152602001610c81565b838111156108d15750506000910152565b60008251610cbc818460208701610c7e565b9190910192915050565b600060208284031215610cd857600080fd5b81516109f081610b77565b600060208284031215610cf557600080fd5b5051919050565b60008219821115610d1d57634e487b7160e01b600052601160045260246000fd5b500190565b600060208284031215610d3457600080fd5b815180151581146109f057600080fd5b6020815260008251806020840152610d63816040850160208701610c7e565b601f01601f1916919091016040019291505056fea26469706673582212200dab8b8a6daabf4294696bd2c360984a214df716d5fe261da9bf3f4571695b9564736f6c634300080d0033",
  "devdoc": {
    "kind": "dev",
    "methods": {},
    "version": 1
  },
  "userdoc": {
    "kind": "user",
    "methods": {},
    "version": 1
  },
  "storageLayout": {
    "storage": [
      {
        "astId": 659,
        "contract": "contracts/SubdomainsRegistry.sol:SubdomainsRegistry",
        "label": "deposits",
        "offset": 0,
        "slot": "0",
        "type": "t_mapping(t_address,t_struct(Deposit)666_storage)"
      }
    ],
    "types": {
      "t_address": {
        "encoding": "inplace",
        "label": "address",
        "numberOfBytes": "20"
      },
      "t_bool": {
        "encoding": "inplace",
        "label": "bool",
        "numberOfBytes": "1"
      },
      "t_mapping(t_address,t_struct(Deposit)666_storage)": {
        "encoding": "mapping",
        "key": "t_address",
        "label": "mapping(address => struct SubdomainsRegistry.Deposit)",
        "numberOfBytes": "32",
        "value": "t_struct(Deposit)666_storage"
      },
      "t_struct(Deposit)666_storage": {
        "encoding": "inplace",
        "label": "struct SubdomainsRegistry.Deposit",
        "members": [
          {
            "astId": 661,
            "contract": "contracts/SubdomainsRegistry.sol:SubdomainsRegistry",
            "label": "deadline",
            "offset": 0,
            "slot": "0",
            "type": "t_uint64"
          },
          {
            "astId": 663,
            "contract": "contracts/SubdomainsRegistry.sol:SubdomainsRegistry",
            "label": "paid",
            "offset": 8,
            "slot": "0",
            "type": "t_bool"
          },
          {
            "astId": 665,
            "contract": "contracts/SubdomainsRegistry.sol:SubdomainsRegistry",
            "label": "withdrawn",
            "offset": 9,
            "slot": "0",
            "type": "t_bool"
          }
        ],
        "numberOfBytes": "32"
      },
      "t_uint64": {
        "encoding": "inplace",
        "label": "uint64",
        "numberOfBytes": "8"
      }
    }
  }
}