{
  "address": "0xFDA734ac0a84F42b8E5D0728177a512FBa06FA50",
  "abi": [
    {
      "inputs": [
        {
          "internalType": "address",
          "name": "_token",
          "type": "address"
        },
        {
          "internalType": "address",
          "name": "_ens",
          "type": "address"
        },
        {
          "internalType": "bytes32",
          "name": "_node",
          "type": "bytes32"
        },
        {
          "internalType": "address",
          "name": "_resolver",
          "type": "address"
        }
      ],
      "stateMutability": "nonpayable",
      "type": "constructor"
    },
    {
      "anonymous": false,
      "inputs": [
        {
          "indexed": true,
          "internalType": "bytes32",
          "name": "label",
          "type": "bytes32"
        },
        {
          "indexed": true,
          "internalType": "address",
          "name": "to",
          "type": "address"
        },
        {
          "indexed": true,
          "internalType": "bool",
          "name": "paid",
          "type": "bool"
        }
      ],
      "name": "Register",
      "type": "event"
    },
    {
      "anonymous": false,
      "inputs": [
        {
          "indexed": true,
          "internalType": "address",
          "name": "to",
          "type": "address"
        }
      ],
      "name": "Withdraw",
      "type": "event"
    },
    {
      "inputs": [],
      "name": "ens",
      "outputs": [
        {
          "internalType": "address",
          "name": "",
          "type": "address"
        }
      ],
      "stateMutability": "view",
      "type": "function"
    },
    {
      "inputs": [],
      "name": "node",
      "outputs": [
        {
          "internalType": "bytes32",
          "name": "",
          "type": "bytes32"
        }
      ],
      "stateMutability": "view",
      "type": "function"
    },
    {
      "inputs": [],
      "name": "owner",
      "outputs": [
        {
          "internalType": "address",
          "name": "",
          "type": "address"
        }
      ],
      "stateMutability": "view",
      "type": "function"
    },
    {
      "inputs": [
        {
          "internalType": "string",
          "name": "domain",
          "type": "string"
        },
        {
          "internalType": "address",
          "name": "to",
          "type": "address"
        }
      ],
      "name": "register",
      "outputs": [],
      "stateMutability": "nonpayable",
      "type": "function"
    },
    {
      "inputs": [
        {
          "internalType": "address",
          "name": "",
          "type": "address"
        }
      ],
      "name": "registrations",
      "outputs": [
        {
          "internalType": "uint64",
          "name": "deadline",
          "type": "uint64"
        },
        {
          "internalType": "bool",
          "name": "paid",
          "type": "bool"
        },
        {
          "internalType": "bool",
          "name": "withdrawn",
          "type": "bool"
        }
      ],
      "stateMutability": "view",
      "type": "function"
    },
    {
      "inputs": [],
      "name": "resolver",
      "outputs": [
        {
          "internalType": "address",
          "name": "",
          "type": "address"
        }
      ],
      "stateMutability": "view",
      "type": "function"
    },
    {
      "inputs": [],
      "name": "token",
      "outputs": [
        {
          "internalType": "address",
          "name": "",
          "type": "address"
        }
      ],
      "stateMutability": "view",
      "type": "function"
    },
    {
      "inputs": [
        {
          "internalType": "address",
          "name": "to",
          "type": "address"
        }
      ],
      "name": "withdraw",
      "outputs": [],
      "stateMutability": "nonpayable",
      "type": "function"
    }
  ],
  "transactionHash": "0x1d565f9cb093feaa90f609b7a615a7d151ef05c9c7ca3d593a5203cbc21fd6b6",
  "args": [
    "0xdE0C1dC7f2b67705Cca50039418715F9C7F8D53B",
    "0x00000000000C2E074eC69A0dFb2997BA6C7d2e1e",
    "0xf88903d82aebfe9a5fa03a1a6eb4475330ed9991c9b6ffea0f6d0154a210efbe",
    "0x4976fb03c32e5b8cfe2b6ccb31c09ba78ebaba41"
  ],
  "solcInputHash": "291b129b75af22fe30bdc2698c516432",
  "bytecode": "0x61012060405234801561001157600080fd5b50604051610f5a380380610f5a83398101604081905261003091610071565b336080526001600160a01b0393841660a05291831660c05260e05216610100526100be565b80516001600160a01b038116811461006c57600080fd5b919050565b6000806000806080858703121561008757600080fd5b61009085610055565b935061009e60208601610055565b9250604085015191506100b360608601610055565b905092959194509250565b60805160a05160c05160e05161010051610e146101466000396000818160920152818161046201526105100152600081816101b4015281816102f201528181610427015261057b01526000818160eb015281816103650152818161049101526105b80152600081816101e9015281816106bd0152610897015260006101250152610e146000f3fe608060405234801561001057600080fd5b50600436106100885760003560e01c80638da5cb5b1161005b5780638da5cb5b14610120578063942e6bcf14610147578063d70754ec146101af578063fc0c546a146101e457600080fd5b806304f3bcec1461008d5780631e59c529146100d15780633f15457f146100e657806351cff8d91461010d575b600080fd5b6100b47f000000000000000000000000000000000000000000000000000000000000000081565b6040516001600160a01b0390911681526020015b60405180910390f35b6100e46100df366004610c06565b61020b565b005b6100b47f000000000000000000000000000000000000000000000000000000000000000081565b6100e461011b366004610cc8565b6106f5565b6100b47f000000000000000000000000000000000000000000000000000000000000000081565b610187610155366004610cc8565b60006020819052908152604090205467ffffffffffffffff81169060ff600160401b8204811691600160481b90041683565b6040805167ffffffffffffffff909416845291151560208401521515908201526060016100c8565b6101d67f000000000000000000000000000000000000000000000000000000000000000081565b6040519081526020016100c8565b6100b47f000000000000000000000000000000000000000000000000000000000000000081565b3360009081526020819052604090205467ffffffffffffffff16156102775760405162461bcd60e51b815260206004820152601860248201527f4c4556583a204f4e455f444f4d41494e5f414c4c4f574544000000000000000060448201526064015b60405180910390fd5b815160038110156102c35760405162461bcd60e51b8152602060048201526016602482015275131155960e881113d350525397d513d3d7d4d213d49560521b604482015260640161026e565b6000836040516020016102d69190610d11565b60405160208183030381529060405280519060200120905060007f00000000000000000000000000000000000000000000000000000000000000008260405160200161032c929190918252602082015260400190565b60408051808303601f190181529082905280516020909101206302571be360e01b82526004820181905291506000906001600160a01b037f000000000000000000000000000000000000000000000000000000000000000016906302571be390602401602060405180830381865afa1580156103ac573d6000803e3d6000fd5b505050506040513d601f19601f820116820180604052508101906103d09190610d2d565b6001600160a01b0316146104185760405162461bcd60e51b815260206004820152600f60248201526e4c4556583a204455504c494341544560881b604482015260640161026e565b6040516305ef2c7f60e41b81527f00000000000000000000000000000000000000000000000000000000000000006004820152602481018390523060448201526001600160a01b037f000000000000000000000000000000000000000000000000000000000000000081166064830152600060848301527f00000000000000000000000000000000000000000000000000000000000000001690635ef2c7f09060a401600060405180830381600087803b1580156104d557600080fd5b505af11580156104e9573d6000803e3d6000fd5b505060405162d5fa2b60e81b8152600481018490526001600160a01b0387811660248301527f000000000000000000000000000000000000000000000000000000000000000016925063d5fa2b009150604401600060405180830381600087803b15801561055657600080fd5b505af115801561056a573d6000803e3d6000fd5b50506040516306ab592360e01b81527f00000000000000000000000000000000000000000000000000000000000000006004820152602481018590526001600160a01b0387811660448301527f00000000000000000000000000000000000000000000000000000000000000001692506306ab592391506064016020604051808303816000875af1158015610603573d6000803e3d6000fd5b505050506040513d601f19601f820116820180604052508101906106279190610d4a565b50600783111561063a4262127500610d63565b336000908152602081905260408082208054851515600160401b810268ffffffffffffffffff1990921667ffffffffffffffff9690961695909517179055516001600160a01b0388169186917fec70afbd65b171786ffda4b0655d145a1d6e0bc9407e225c9864fbd1b4e910429190a480156106ed576106ed6001600160a01b037f0000000000000000000000000000000000000000000000000000000000000000163330670de0b6b3a76400006108cd565b505050505050565b336000908152602081905260409020805467ffffffffffffffff81169060ff600160401b8204811691600160481b900416816107645760405162461bcd60e51b815260206004820152600e60248201526d131155960e881393d397d410525160921b604482015260640161026e565b60008367ffffffffffffffff16116107b35760405162461bcd60e51b8152602060048201526012602482015271131155960e881393d397d1561254d511539560721b604482015260640161026e565b428367ffffffffffffffff1611156107ff5760405162461bcd60e51b815260206004820152600f60248201526e4c4556583a20544f4f5f4541524c5960881b604482015260640161026e565b801561083f5760405162461bcd60e51b815260206004820152600f60248201526e2622ab2c1d102ba4aa24222920aba760891b604482015260640161026e565b835469ff0000000000000000001916600160481b1784556040516001600160a01b038616907ff67611512e0a2d90c96fd3f08dca4971bc45fba9dc679eabe839a32abbe58a8e90600090a26108c66001600160a01b037f00000000000000000000000000000000000000000000000000000000000000001686670de0b6b3a764000061093e565b5050505050565b6040516001600160a01b03808516602483015283166044820152606481018290526109389085906323b872dd60e01b906084015b60408051601f198184030181529190526020810180516001600160e01b03166001600160e01b031990931692909217909152610973565b50505050565b6040516001600160a01b03831660248201526044810182905261096e90849063a9059cbb60e01b90606401610901565b505050565b60006109c8826040518060400160405280602081526020017f5361666545524332303a206c6f772d6c6576656c2063616c6c206661696c6564815250856001600160a01b0316610a459092919063ffffffff16565b80519091501561096e57808060200190518101906109e69190610d89565b61096e5760405162461bcd60e51b815260206004820152602a60248201527f5361666545524332303a204552433230206f7065726174696f6e20646964206e6044820152691bdd081cdd58d8d9595960b21b606482015260840161026e565b6060610a548484600085610a5e565b90505b9392505050565b606082471015610abf5760405162461bcd60e51b815260206004820152602660248201527f416464726573733a20696e73756666696369656e742062616c616e636520666f6044820152651c8818d85b1b60d21b606482015260840161026e565b6001600160a01b0385163b610b165760405162461bcd60e51b815260206004820152601d60248201527f416464726573733a2063616c6c20746f206e6f6e2d636f6e7472616374000000604482015260640161026e565b600080866001600160a01b03168587604051610b329190610d11565b60006040518083038185875af1925050503d8060008114610b6f576040519150601f19603f3d011682016040523d82523d6000602084013e610b74565b606091505b5091509150610b84828286610b8f565b979650505050505050565b60608315610b9e575081610a57565b825115610bae5782518084602001fd5b8160405162461bcd60e51b815260040161026e9190610dab565b634e487b7160e01b600052604160045260246000fd5b6001600160a01b0381168114610bf357600080fd5b50565b8035610c0181610bde565b919050565b60008060408385031215610c1957600080fd5b823567ffffffffffffffff80821115610c3157600080fd5b818501915085601f830112610c4557600080fd5b813581811115610c5757610c57610bc8565b604051601f8201601f19908116603f01168101908382118183101715610c7f57610c7f610bc8565b81604052828152886020848701011115610c9857600080fd5b826020860160208301376000602084830101528096505050505050610cbf60208401610bf6565b90509250929050565b600060208284031215610cda57600080fd5b8135610a5781610bde565b60005b83811015610d00578181015183820152602001610ce8565b838111156109385750506000910152565b60008251610d23818460208701610ce5565b9190910192915050565b600060208284031215610d3f57600080fd5b8151610a5781610bde565b600060208284031215610d5c57600080fd5b5051919050565b60008219821115610d8457634e487b7160e01b600052601160045260246000fd5b500190565b600060208284031215610d9b57600080fd5b81518015158114610a5757600080fd5b6020815260008251806020840152610dca816040850160208701610ce5565b601f01601f1916919091016040019291505056fea26469706673582212204308545de02c1a2c9b1ca5badbd44566c831ec85831fb41da1a850eddeae8b5e64736f6c634300080d0033",
  "devdoc": {
    "kind": "dev",
    "methods": {},
    "version": 1
  },
  "userdoc": {
    "kind": "user",
    "methods": {},
    "version": 1
  },
  "storageLayout": {
    "storage": [
      {
        "astId": 659,
        "contract": "contracts/SubdomainsRegistry.sol:SubdomainsRegistry",
        "label": "registrations",
        "offset": 0,
        "slot": "0",
        "type": "t_mapping(t_address,t_struct(Registration)666_storage)"
      }
    ],
    "types": {
      "t_address": {
        "encoding": "inplace",
        "label": "address",
        "numberOfBytes": "20"
      },
      "t_bool": {
        "encoding": "inplace",
        "label": "bool",
        "numberOfBytes": "1"
      },
      "t_mapping(t_address,t_struct(Registration)666_storage)": {
        "encoding": "mapping",
        "key": "t_address",
        "label": "mapping(address => struct SubdomainsRegistry.Registration)",
        "numberOfBytes": "32",
        "value": "t_struct(Registration)666_storage"
      },
      "t_struct(Registration)666_storage": {
        "encoding": "inplace",
        "label": "struct SubdomainsRegistry.Registration",
        "members": [
          {
            "astId": 661,
            "contract": "contracts/SubdomainsRegistry.sol:SubdomainsRegistry",
            "label": "deadline",
            "offset": 0,
            "slot": "0",
            "type": "t_uint64"
          },
          {
            "astId": 663,
            "contract": "contracts/SubdomainsRegistry.sol:SubdomainsRegistry",
            "label": "paid",
            "offset": 8,
            "slot": "0",
            "type": "t_bool"
          },
          {
            "astId": 665,
            "contract": "contracts/SubdomainsRegistry.sol:SubdomainsRegistry",
            "label": "withdrawn",
            "offset": 9,
            "slot": "0",
            "type": "t_bool"
          }
        ],
        "numberOfBytes": "32"
      },
      "t_uint64": {
        "encoding": "inplace",
        "label": "uint64",
        "numberOfBytes": "8"
      }
    }
  }
}